{
  "contractName": "ISCCRegistry",
  "abi": [
    {
      "anonymous": false,
      "inputs": [
        {
          "indexed": true,
          "internalType": "address",
          "name": "actor",
          "type": "address"
        },
        {
          "indexed": false,
          "internalType": "bytes",
          "name": "iscc",
          "type": "bytes"
        },
        {
          "indexed": false,
          "internalType": "bytes",
          "name": "tophash",
          "type": "bytes"
        }
      ],
      "name": "ISCC",
      "type": "event"
    },
    {
      "inputs": [
        {
          "internalType": "bytes",
          "name": "iscc",
          "type": "bytes"
        },
        {
          "internalType": "bytes",
          "name": "tophash",
          "type": "bytes"
        }
      ],
      "name": "declare",
      "outputs": [],
      "stateMutability": "nonpayable",
      "type": "function"
    }
  ],
  "bytecode": "0x608060405234801561001057600080fd5b506101e8806100206000396000f3fe608060405234801561001057600080fd5b506004361061002b5760003560e01c8063989cda3514610030575b600080fd5b6100fc6004803603604081101561004657600080fd5b810190808035906020019064010000000081111561006357600080fd5b82018360208201111561007557600080fd5b8035906020019184600183028401116401000000008311171561009757600080fd5b9091929391929390803590602001906401000000008111156100b857600080fd5b8201836020820111156100ca57600080fd5b803590602001918460018302840111640100000000831117156100ec57600080fd5b90919293919293905050506100fe565b005b3373ffffffffffffffffffffffffffffffffffffffff167f402e29a414299304470042d6c1c914d84d55d4d46df0cf5aa4fe39ce525dc3a1858585856040518080602001806020018381038352878782818152602001925080828437600081840152601f19601f8201169050808301925050508381038252858582818152602001925080828437600081840152601f19601f820116905080830192505050965050505050505060405180910390a25050505056fea2646970667358221220dee87c39787e791222f9d82e589aed9596f9d2576b749750ae971f077f90340c64736f6c63430007010033",
  "source": "// SPDX-License-Identifier: MIT\npragma solidity >=0.7.1 <0.8.0;\n\ncontract ISCCRegistry {\n\n    event ISCC(address indexed actor, bytes iscc, bytes tophash);\n\n    function declare(bytes calldata iscc, bytes calldata tophash) public {\n        // TODO: validate iscc\n        emit ISCC(msg.sender, iscc, tophash);\n    }\n\n}",
  "sourcePath": "/home/kwittek/development/licium/licium/ethereum/contracts/ISCCRegistry.sol",
  "compiler": {
    "name": "solc",
    "version": "0.7.1+commit.f4a555be.Emscripten.clang"
  },
  "schemaVersion": "3.0.23",
  "updatedAt": "2020-09-21T09:39:27.142Z",
  "networkType": "ethereum",
  "devdoc": {
    "kind": "dev",
    "methods": {},
    "version": 1
  },
  "userdoc": {
    "kind": "user",
    "methods": {},
    "version": 1
  }
}